:1000000012C02CC02BC02AC029C028C027C09AC04B
:1000100034C124C023C022C021C020C01FC01EC0C4
:100020001DC01CC01BC011241FBECFE5D4E0DEBF25
:10003000CDBF10E0A0E6B0E0EAEAF9E002C005902A
:100040000D92A436B107D9F720E0A4E6B0E001C0D4
:100050001D92AF38B207E1F702D0A5C4D1CF8FEF20
:1000600087BB81BB87B38F7E87BB88B38F7E88BBFE
:1000700082E08FBD89E08EBD8CE089BF86E990E08B
:1000800099BD88BD8DE08A95F1F70000789420E055
:1000900010E0CCE3D0E06091620070916300809149
:1000A000640090E08C179D07B0F32F5F243108F4B3
:1000B00040C02197C630D10510F4C6E0D0E080E002
:1000C00090E080D328E539E344E35CE309D449D3E5
:1000D00080E090E077D320E030E048EC52E4D9D2E1
:1000E00020E030E040E054E4FBD33BD37093610068
:1000F000609360006436710530F484E690E090937C
:1001000061008093600080916000909161008B3F5E
:10011000910530F08AEF90E0909361008093600049
:10012000F894809160009091610099BD88BD7894A9
:1001300020E0109264001F5F163008F010E010936A
:100140008E00A9CF1F920F920FB60F9211242F93FA
:100150003F934F935F936F937F938F939F93AF934F
:10016000BF93CF93DF93EF9388B38E7F88BB88B321
:100170008D7F88BB88B38B7F88BB90916600209170
:10018000880081E0911180E0882309F464C081E057
:10019000243008F480E0882309F45DC08091690070
:1001A00060916800E091670050918E0036B338701E
:1001B00026B3207196B3907241E0811101C040E0F6
:1001C00081E0611101C080E0842341E0E11101C0C0
:1001D00040E0882329F0442319F081E080936600F1
:1001E00061E0211160E041E0311101C040E04623AF
:1001F00071E0911170E0442361F0772351F0C52F35
:10020000D0E02196DE010AF41196B595A795A0934A
:10021000690081E0311180E031E0211101C030E05E
:100220003823772371F0332361F0252F30E02F5FDF
:100230003F4FA90112F44F5F5F4F5595479540938B
:100240006800862321E0911101C020E0882319F085
:100250002111E0936700EF91DF91CF91BF91AF91B2
:100260009F918F917F916F915F914F913F912F91CE
:100270000F900FBE0F901F9018951F920F920FB600
:100280000F9211246F927F928F929F92AF92BF92A2
:10029000CF92DF92EF92FF920F931F932F933F9392
:1002A0004F935F936F937F938F939F93AF93BF937E
:1002B000CF93DF93EF93FF93009164001091880038
:1002C00030916600133018F4D0918E0001C0D0E058
:1002D0001092650080916900813021F496B3987086
:1002E000F92E01C0F12C823019F496B39071F92ED9
:1002F000833019F486B38072F82E909168009130A3
:1003000019F486B3887001C080E0923011F486B38E
:100310008071933011F486B3807220916700213090
:1003200019F496B3987001C090E0223011F496B39E
:100330009071233011F496B39072332391F121E040
:10034000F11001C020E051E0811150E0622F6523DF
:1003500031E0911101C030E0662311F03111D0E09D
:1003600041E0911140E0662311F04111D1E091E0AC
:10037000811101C090E02923442311F02111D2E022
:1003800081E0F11080E09823442311F09111D3E033
:10039000332311F09111D4E08523332311F081111F
:1003A000D5E020918C0030918D0080918A00909151
:1003B0008B00709089000F5FC1E0C20F26B331E05F
:1003C000422F407124FF30E0332379F021E0711097
:1003D00020E0222351F08C2F90E0133020F41F5F97
:1003E0007724739402C07724739421E0411120E0B4
:1003F000222341F021E0721220E0222319F02C2F59
:1004000030E002C020E030E041E0009709F440E035
:10041000442391F141E02115310509F440E04423E2
:1004200059F1281B390B220F331FB901660F771FB3
:10043000660F771F660F771F621B730B80E090E0DB
:10044000C1D12DEB37E346E858E34AD29B01AC011A
:1004500060E070E080E89FE31CD120E030E040E7FE
:1004600052E43ED27ED1693E23E0720748F4712CFB
:1004700080E090E0612C09C060E070E0612C05C074
:10048000712C80E090E06624639431E0631217C021
:1004900051E0F11050E0FF2021F02C2F30E0E1E09E
:1004A00003C0E0E020E030E041E0E11101C040E0C5
:1004B000442351F0552341F08C2E912C07C0812C00
:1004C000912C20E030E002C0812C912C42B3477F78
:1004D00042BB42B34F7E42BB42B34F7D42BB48B3A7
:1004E0004E7F48BB48B34D7F48BB48B34B7F48BBAA
:1004F000D1110CC048B3426048BB42B3406242BB1A
:100500002530310531F0EC2EF12C05C0E12CF12C19
:1005100002C0E12CF12CD13049F448B3426048BB11
:1005200042B3486042BBAC2FB0E002C0A0E0B0E0F4
:10053000D23049F448B3446048BB42B3486042BB40
:10054000EC2FF0E002C0E0E0F0E0D33061F448B31B
:10055000446048BB42B3406142BB2530310531F0B5
:10056000AC2EB12C05C0A12CB12C02C0A12CB12CF9
:10057000D43049F448B3416048BB42B3406142BB08
:100580004C2F50E002C040E050E0D53049F4D8B3E1
:10059000D160D8BBD2B3D062D2BBCC2ED12C02C09A
:1005A000C12CD12C6620F1F1609265003093870058
:1005B0002093860010928500109284001092830090
:1005C00010928200909281008092800010927F00B1
:1005D00010927E0010927D0010927C00F0927B00C1
:1005E000E0927A00B0937900A0937800F0937700BE
:1005F000E0937600B0927500A0927400509373005F
:1006000040937200D0927100C092700020916F00F0
:1006100020916E0020916D0020916C0020916B0064
:1006200020916A00009364006230710520F070939D
:1006300063006093620010938800D0E0D0938D0037
:10064000C0938C0090938B0080938A0070928900F5
:1006500084E088BFFF91EF91DF91CF91BF91AF917F
:100660009F918F917F916F915F914F913F912F91CA
:100670001F910F91FF90EF90DF90CF90BF90AF90C0
:100680009F908F907F906F900F900FBE0F901F9054
:1006900018950CD0EBC0E3D040F0DAD030F021F464
:1006A0005F3F19F0CCC0511115C1CFC0F0D098F305
:1006B0009923C9F35523B1F3951B550BBB27AA27E3
:1006C00062177307840738F09F5F5F4F220F331F55
:1006D000441FAA1FA9F333D00E2E3AF0E0E830D021
:1006E00091505040E695001CCAF729D0FE2F27D024
:1006F000660F771F881FBB1F261737074807AB07F2
:10070000B0E809F0BB0B802DBF01FF2793585F4F66
:100710002AF09E3F510568F092C0DCC05F3FECF3C9
:10072000983EDCF3869577956795B795F7959F5F2B
:10073000C9F7880F911D9695879597F90895E1E07F
:10074000660F771F881FBB1F621773078407BA07DE
:1007500020F0621B730B840BBA0BEE1F88F7E09539
:10076000089504D06894B111B5C0089598D088F068
:100770009F5790F0B92F9927B751A0F0D1F0660F8D
:10078000771F881F991F1AF0BA95C9F712C0B130A8
:1007900081F09FD0B1E008959CC0672F782F882703
:1007A000B85F39F0B93FCCF3869577956795B395E7
:1007B000D9F73EF490958095709561957F4F8F4F56
:1007C0009F4F0895E89409C097FB3EF4909580955B
:1007D000709561957F4F8F4F9F4F9923A9F0F92F07
:1007E00096E9BB279395F695879577956795B79585
:1007F000F111F8CFFAF4BB0F11F460FF1BC06F5F6B
:100800007F4F8F4F9F4F16C0882311F096E911C07C
:10081000772321F09EE8872F762F05C0662371F09D
:1008200096E8862F70E060E02AF09A95660F771FB1
:10083000881FDAF7880F9695879597F9089597F9A5
:100840009F6780E870E060E008959FEF80EC089576
:1008500000240A941616170618060906089500249F
:100860000A9412161306140605060895092E039419
:10087000000C11F4882352F0BB0F40F4BF2B11F48D
:1008800060FF04C06F5F7F4F8F4F9F4F089557FDEC
:100890009058440F551F59F05F3F71F04795880FEE
:1008A00097FB991F61F09F3F79F087950895121685
:1008B00013061406551FF2CF4695F1DF08C0161631
:1008C00017061806991FF1CF8695710561050894E2
:1008D0000895E894BB2766277727CB0197F90895F9
:1008E0000BD0C4CFB5DF28F0BADF18F0952309F09C
:1008F000A6CFABCF1124EECFCADFA0F3959FD1F3E3
:10090000950F50E0551F629FF001729FBB27F00DBD
:10091000B11D639FAA27F00DB11DAA1F649F662712
:10092000B00DA11D661F829F2227B00DA11D621F61
:10093000739FB00DA11D621F839FA00D611D221F1B
:10094000749F3327A00D611D231F849F600D211DFF
:10095000822F762F6A2F11249F5750408AF0E1F0A2
:1009600088234AF0EE0FFF1FBB1F661F771F881FEB
:1009700091505040A9F79E3F510570F060CFAACF2B
:100980005F3FECF3983EDCF3869577956795B795D6
:10099000F795E7959F5FC1F7FE2B880F911D969500
:0A09A000879597F90895F894FFCFAA
:0409AA00680084035A
:00000001FF
