:1000000012C021C020C01FC01EC01DC01CC01BC00C
:100010001AC019C018C017C016C015C014C013C02C
:1000200012C011C010C011241FBECFE5D4E0DEBF46
:10003000CDBF20E0A0E6B0E001C01D92A136B2071E
:10004000E1F762D0D9C0DCCF9C0192B3906292BB41
:100050002130310519F488B3826088BB232B19F451
:1000600088B38D7F88BB08959C0192B3986092BB42
:100070002130310519F488B3826088BB232B19F431
:1000800088B38D7F88BB08959C0192B3986092BB22
:100090002130310519F488B3846088BB232B19F40F
:1000A00088B38B7F88BB08959C0192B3906192BB0B
:1000B0002130310519F488B3846088BB232B19F4EF
:1000C00088B38B7F88BB08959C0192B3906192BBEB
:1000D0002130310519F488B3816088BB232B19F4D2
:1000E00088B38E7F88BB08959C0192B3906292BBC7
:1000F0002130310519F488B3816088BB232B19F4B2
:1001000088B38E7F88BB08958FEF87BB81BB0F2E8E
:10011000F4EFEF2EFF24F394F02DD0E0C0E0C12CDB
:10012000D12C00E010E00F5F1F4F0530110528F0C3
:100130008FEFC81AD80A00E010E0CE14DF0418F0E0
:10014000CF5FC12CD12C0115110519F481E08093EA
:1001500060000115110511F010926000CD1719F122
:1001600081E0E81AF1088FE1E816F10428F40F2E77
:10017000FEE1EF2EF12CF02D88B38E7F88BB88B383
:100180008B7F88BB88B38D7F88BB82B38F7D82BB1A
:1001900082B3877F82BB82B38F7E82BB8AE18A95DE
:1001A000F1F700C0DC2FC73009F4C1E0C13021F401
:1001B0008091600090E048DFC23021F480916000BF
:1001C00090E052DFC33021F48091600090E05CDF6A
:1001D000C43021F48091600090E066DFC53021F4E6
:1001E0008091600090E070DFC63009F09CCF809174
:0C01F000600090E079DF97CFF894FFCF1B
:00000001FF
