:1000000012C02CC02BC075C286C228C0D9C2EAC299
:10001000FBC224C023C022C021C020C057C21EC0C2
:100020001DC01CC01BC011241FBECFE5D4E0DEBF25
:10003000CDBF10E0A0E6B0E0E2EFFBE002C005902B
:100040000D92A436B107D9F720E0A4E6B0E001C0D4
:100050001D92A337B207E1F702D0C9C5D1CF8FEF08
:1000600087BB81BB8AE485BD89E091E00197F1F708
:1000700000C0000081E08FBD89E08EBD84E489BFAF
:1000800020E030E048EC52E460916F007091700025
:100090008091710090917200F8D320E030E04FE73A
:1000A00053E442D55FD463BD20E030E048EC52E435
:1000B00060916B0070916C0080916D0090916E006A
:1000C000E4D320E030E04FE753E42ED54BD47BBDA2
:1000D0006ABD20E030E048EC52E460916700709126
:1000E00068008091690090916A00CFD320E030E0F1
:1000F0004FE753E419D536D479BD68BD7894C12C47
:10010000D12C0F2EF3E2EF2EF12CF02D00E010E0B9
:10011000D0E0C0E0912CA12CB12C9FEFC91AD90AD4
:10012000EC14FD04D8F4CF5F10926F0010927000B1
:10013000109271001092720010926B0010926C007D
:1001400010926D0010926E0010926700109268007D
:100150001092690010926A00C12CD12CC630A8F010
:1001600082B3805882BBC701019726E0E21AF108EA
:1001700024ECE216F10418F47C01C0E006C00F2E56
:10018000F5E0EF2EF12CF02DC0E082B3805882BB59
:10019000C11109C00F2EF8EC9F2EF02DA12C0F2EAF
:1001A000F4E6BF2EF02DC13049F40F2EF4E69F2E59
:1001B000F02DA12C0F2EF8ECBF2EF02DC23049F4FB
:1001C000912C0F2EF4E6AF2EF02D0F2EF8ECBF2E53
:1001D000F02DC33049F4912C0F2EF8ECAF2EF02DFA
:1001E0000F2EF4E6BF2EF02DC43049F40F2EF4E6A6
:1001F0009F2EF02D0F2EF8ECAF2EF02DB12CC53028
:1002000049F40F2EF8EC9F2EF02D0F2EF4E6AF2EB2
:10021000F02DB12C6B2D70E080E090E0D1D32B015C
:100220003C0120E030E048EC52E47AD4181694F413
:10023000DCE9DB0D6D2F70E080E090E0BFD36093D0
:100240006F0070937000809371009093720081E052
:100250008093660020E030E048EC52E4C301B20134
:1002600010D388238CF4D4E6DB196D2F70E080E086
:1002700090E0A4D360936F0070937000809371003E
:1002800090937200109266006A2D70E080E090E01A
:1002900097D32B013C0120E030E048EC52E440D4FD
:1002A000181694F41CE91A0D612F70E080E090E0BC
:1002B00085D360936B0070936C0080936D00909376
:1002C0006E0081E08093650020E030E048EC52E46D
:1002D000C301B201D6D288238CF414E61A19612F17
:1002E00070E080E090E06AD360936B0070936C00E4
:1002F00080936D0090936E0010926500692D70E000
:1003000080E090E05DD32B013C0120E030E048EC40
:1003100052E406D4181694F40CE9090D602F70E02D
:1003200080E090E04BD36093670070936800809307
:10033000690090936A0081E08093640020E030E0DF
:1003400048EC52E4C301B2019CD288238CF404E649
:100350000919602F70E080E090E030D3609367006F
:10036000709368008093690090936A001092640013
:100370006D2F70E080E090E023D3209160003091F9
:1003800061004091620050916300CED320E030E0E4
:1003900040E251E4C5D318160CF589B7806889BFCF
:1003A00020916000309161004091620050916300A3
:1003B00060916F0070917000809171009091720057
:1003C000B3D320E030E048EC52E45FD220E030E0EC
:1003D0004FE753E4A9D3C6D263BD03C089B78F7773
:1003E00089BF612F70E080E090E0EAD22091600048
:1003F00030916100409162005091630095D320E0FC
:1004000030E040E251E48CD3181614F589B78061CE
:1004100089BF20916000309161004091620050914D
:10042000630060916B0070916C0080916D00909101
:100430006E007AD320E030E048EC52E426D220E08F
:1004400030E04FE753E470D38DD27BBD6ABD03C06B
:1004500089B78F7E89BF602F70E080E090E0B0D2D6
:1004600020916000309161004091620050916300E2
:100470005BD320E030E040E251E452D3181614F58B
:1004800089B7886089BF20916000309161004091F8
:1004900062005091630060916700709168008091E4
:1004A000690090916A0040D320E030E048EC52E4CB
:1004B000ECD120E030E04FE753E436D353D279BD9E
:1004C00068BD2BCE89B7877F89BF27CE1F920F9239
:1004D0000FB60F9211248F939F9384B195B186B17B
:1004E000806486B99F918F910F900FBE0F901F90DF
:1004F00018951F920F920FB60F9211248F9388B305
:100500008E7F88BB82B3877F82BB8F910F900FBE97
:100510000F901F9018951F920F920FB60F921124F3
:100520002F933F934F935F936F937F938F939F93FB
:10053000AF93BF93EF93FF932091600030916100E0
:10054000409162005091630060916F007091700063
:100550008091710090917200E7D2FFD120916600E6
:10056000422F50E021E06B3071050CF420E031E0C7
:100570004115510509F030E0332329F0222319F009
:1005800038B3316038BB31E04130510509F030E01B
:10059000332329F0222319F082B3886082BBFF91B4
:1005A000EF91BF91AF919F918F917F916F915F91EB
:1005B0004F913F912F910F900FBE0F901F90189564
:1005C0001F920F920FB60F9211248F9388B38D7FD5
:1005D00088BB82B38F7E82BB8F910F900FBE0F902E
:1005E0001F9018951F920F920FB60F9211248F93A0
:1005F00088B38B7F88BB82B38F7D82BB8F910F9036
:100600000FBE0F901F9018951F920F920FB60F926A
:100610001124BF92CF92DF92EF92FF920F931F931C
:100620002F933F934F935F936F937F938F939F93FA
:10063000AF93BF93CF93DF93EF93FF93B090660098
:100640000091650010916400C0906000D09061003E
:10065000E0906200F090630020916F003091700094
:100660004091710050917200C701B6015DD27AD1FC
:10067000C62F20916B0030916C0040916D0050911D
:100680006E00C701B60150D26DD1D62F2091670000
:10069000309168004091690050916A00C701B6012D
:1006A00043D260D121E0CB3008F020E091E0DB3094
:1006B00008F090E0822F892B31E06B3008F030E0B9
:1006C000811103C0332309F48CC081E0B11080E0B4
:1006D000822341E0C11101C040E0882379F0442326
:1006E00069F088B3816088BB8C2F880F00C000C080
:1006F00081508233D8F388B38E7F88BB81E0B812F3
:1007000080E02823442379F0222369F082B38860B3
:1007100082BB8C2F880F00C000C081508233D8F379
:1007200082B3877F82BB81E0011180E0892321E0D1
:10073000D11101C020E0882379F0222369F088B329
:10074000826088BB8D2F880F00C000C0815082332B
:10075000D8F388B38D7F88BB81E0013009F080E059
:100760009823222379F0992369F082B3806182BBB8
:100770008D2F880F00C000C081508233D8F382B320
:100780008F7E82BB81E0111180E0832391E06111B3
:1007900001C090E0882379F0992369F088B38460E0
:1007A00088BB862F880F00C000C081508233D8F3E9
:1007B00088B38B7F88BB81E0113009F080E038235B
:1007C000992379F0332369F082B3806282BB862F4C
:1007D000880F00C000C081508233D8F382B38F7D70
:1007E00082BB81E0DB3008F480E091E06B3008F4FC
:1007F00090E0811102C0992351F121E0011120E024
:10080000222329F0882319F028B3226028BB21E095
:10081000013009F020E0222329F0882319F082B367
:10082000806182BB81E0111180E0882329F0992347
:1008300019F088B3846088BB81E0113009F080E052
:10084000882329F0992319F082B3806282BBFF913B
:10085000EF91DF91CF91BF91AF919F918F917F9158
:100860006F915F914F913F912F911F910F91FF9049
:10087000EF90DF90CF90BF900F900FBE0F901F9022
:100880001895D9D008F481E008950CD00FC107D194
:1008900040F0FED030F021F45F3F19F0F0C051116C
:1008A00039C1F3C014D198F39923C9F35523B1F397
:1008B000951B550BBB27AA2762177307840738F0CF
:1008C0009F5F5F4F220F331F441FAA1FA9F333D02E
:1008D0000E2E3AF0E0E830D091505040E695001CE2
:1008E000CAF729D0FE2F27D0660F771F881FBB1F9E
:1008F000261737074807AB07B0E809F0BB0B802D78
:10090000BF01FF2793585F4F2AF09E3F510568F0C3
:10091000B6C000C15F3FECF3983EDCF38695779557
:100920006795B795F7959F5FC9F7880F911D9695C5
:10093000879597F90895E1E0660F771F881FBB1F21
:10094000621773078407BA0720F0621B730B840BCE
:10095000BA0BEE1F88F7E095089504D06894B111A2
:10096000D9C00895BCD088F09F5790F0B92F99272F
:10097000B751A0F0D1F0660F771F881F991F1AF0AA
:10098000BA95C9F712C0B13081F0C3D0B1E0089573
:10099000C0C0672F782F8827B85F39F0B93FCCF3F4
:1009A000869577956795B395D9F73EF490958095A0
:1009B000709561957F4F8F4F9F4F0895E89409C0C0
:1009C00097FB3EF490958095709561957F4F8F4F82
:1009D0009F4F9923A9F0F92F96E9BB279395F69598
:1009E000879577956795B795F111F8CFFAF4BB0F16
:1009F00011F460FF1BC06F5F7F4F8F4F9F4F16C07A
:100A0000882311F096E911C0772321F09EE8872F03
:100A1000762F05C0662371F096E8862F70E060E0BF
:100A20002AF09A95660F771F881FDAF7880F969538
:100A3000879597F90895990F0008550FAA0BE0E8DC
:100A4000FEEF16161706E807F907C0F01216130690
:100A5000E407F50798F0621B730B840B950B39F4D0
:100A60000A2661F0232B242B252B21F408950A2636
:100A700009F4A140A6958FEF811D811D089597F976
:100A80009F6780E870E060E008959FEF80EC089534
:100A900000240A941616170618060906089500245D
:100AA0000A9412161306140605060895092E0394D7
:100AB000000C11F4882352F0BB0F40F4BF2B11F44B
:100AC00060FF04C06F5F7F4F8F4F9F4F089557FDAA
:100AD0009058440F551F59F05F3F71F04795880FAC
:100AE00097FB991F61F09F3F79F087950895121643
:100AF00013061406551FF2CF4695F1DF08C01616EF
:100B000017061806991FF1CF86957105610508949F
:100B10000895E894BB2766277727CB0197F90895B6
:100B20008ADF08F48FEF08950BD0C0CFB1DF28F033
:100B3000B6DF18F0952309F0A2CFA7CF1124EACF92
:100B4000C6DFA0F3959FD1F3950F50E0551F629F2C
:100B5000F001729FBB27F00DB11D639FAA27F00D16
:100B6000B11DAA1F649F6627B00DA11D661F829F3D
:100B70002227B00DA11D621F739FB00DA11D621F22
:100B8000839FA00D611D221F749F3327A00D611D3F
:100B9000231F849F600D211D822F762F6A2F112421
:100BA0009F5750408AF0E1F088234AF0EE0FFF1F74
:100BB000BB1F661F771F881F91505040A9F79E3FAB
:100BC000510570F05CCFA6CF5F3FECF3983EDCF3AD
:100BD000869577956795B795F795E7959F5FC1F7E8
:100BE000FE2B880F911D9695879597F90895F89497
:020BF000FFCF35
:040BF200CDCC4C3DDD
:00000001FF
