:1000000012C021C020C01FC01EC01DC01CC043C0E4
:1000100057C019C018C017C016C015C014C013C0EF
:1000200012C011C010C011241FBECFE5D4E0DEBF46
:10003000CDBF20E0A0E6B0E001C01D92A436B2071B
:10004000E1F702D0A4C0DCCF8FEF87BB81BB83E098
:100050008FBD89E08EBD8CE089BF88EC90E099BDB2
:1000600088BD8DE08A95F1F70000789420E08091BA
:100070006100909162000597D0F32F5F10926200AB
:100080001092610082B3805882BB263008F020E0D5
:1000900020936300ECCF1F920F920FB60F921124A2
:1000A0008F9388B38E7F88BB88B38D7F88BB88B3DE
:1000B0008B7F88BB8F910F900FBE0F901F9018956C
:1000C0001F920F920FB60F9211248F939F938091DE
:1000D00061009091620001969093620080936100AC
:1000E000F89480916300909160007894891749F0AA
:1000F00092B3977F92BB92B39F7E92BB92B39F7D48
:1001000092BB98B39E7F98BB98B39D7F98BB98B3E2
:100110009B7F98BB811106C098B3926098BB92B345
:10012000906292BB813031F498B3926098BB92B3E5
:10013000986092BB823031F498B3946098BB92B3CC
:10014000986092BB833031F498B3946098BB92B3BB
:10015000906192BB843031F498B3916098BB92B3B4
:10016000906192BB853031F498B3916098BB92B3A3
:10017000906292BB8093600092B380E4892782BB37
:100180009F918F910F900FBE0F901F901895F8942C
:02019000FFCF9F
:00000001FF
